{
  "_format": "hh3-artifact-1",
  "contractName": "NFTDonation",
  "sourceName": "contracts/NFTDonation.sol",
  "abi": [
    {
      "inputs": [],
      "stateMutability": "nonpayable",
      "type": "constructor"
    },
    {
      "inputs": [
        {
          "internalType": "address",
          "name": "sender",
          "type": "address"
        },
        {
          "internalType": "uint256",
          "name": "tokenId",
          "type": "uint256"
        },
        {
          "internalType": "address",
          "name": "owner",
          "type": "address"
        }
      ],
      "name": "ERC721IncorrectOwner",
      "type": "error"
    },
    {
      "inputs": [
        {
          "internalType": "address",
          "name": "operator",
          "type": "address"
        },
        {
          "internalType": "uint256",
          "name": "tokenId",
          "type": "uint256"
        }
      ],
      "name": "ERC721InsufficientApproval",
      "type": "error"
    },
    {
      "inputs": [
        {
          "internalType": "address",
          "name": "approver",
          "type": "address"
        }
      ],
      "name": "ERC721InvalidApprover",
      "type": "error"
    },
    {
      "inputs": [
        {
          "internalType": "address",
          "name": "operator",
          "type": "address"
        }
      ],
      "name": "ERC721InvalidOperator",
      "type": "error"
    },
    {
      "inputs": [
        {
          "internalType": "address",
          "name": "owner",
          "type": "address"
        }
      ],
      "name": "ERC721InvalidOwner",
      "type": "error"
    },
    {
      "inputs": [
        {
          "internalType": "address",
          "name": "receiver",
          "type": "address"
        }
      ],
      "name": "ERC721InvalidReceiver",
      "type": "error"
    },
    {
      "inputs": [
        {
          "internalType": "address",
          "name": "sender",
          "type": "address"
        }
      ],
      "name": "ERC721InvalidSender",
      "type": "error"
    },
    {
      "inputs": [
        {
          "internalType": "uint256",
          "name": "tokenId",
          "type": "uint256"
        }
      ],
      "name": "ERC721NonexistentToken",
      "type": "error"
    },
    {
      "inputs": [],
      "name": "ReentrancyGuardReentrantCall",
      "type": "error"
    },
    {
      "anonymous": false,
      "inputs": [
        {
          "indexed": true,
          "internalType": "address",
          "name": "owner",
          "type": "address"
        },
        {
          "indexed": true,
          "internalType": "address",
          "name": "approved",
          "type": "address"
        },
        {
          "indexed": true,
          "internalType": "uint256",
          "name": "tokenId",
          "type": "uint256"
        }
      ],
      "name": "Approval",
      "type": "event"
    },
    {
      "anonymous": false,
      "inputs": [
        {
          "indexed": true,
          "internalType": "address",
          "name": "owner",
          "type": "address"
        },
        {
          "indexed": true,
          "internalType": "address",
          "name": "operator",
          "type": "address"
        },
        {
          "indexed": false,
          "internalType": "bool",
          "name": "approved",
          "type": "bool"
        }
      ],
      "name": "ApprovalForAll",
      "type": "event"
    },
    {
      "anonymous": false,
      "inputs": [
        {
          "indexed": false,
          "internalType": "uint256",
          "name": "_fromTokenId",
          "type": "uint256"
        },
        {
          "indexed": false,
          "internalType": "uint256",
          "name": "_toTokenId",
          "type": "uint256"
        }
      ],
      "name": "BatchMetadataUpdate",
      "type": "event"
    },
    {
      "anonymous": false,
      "inputs": [
        {
          "indexed": true,
          "internalType": "address",
          "name": "donor",
          "type": "address"
        },
        {
          "indexed": true,
          "internalType": "uint256",
          "name": "tokenId",
          "type": "uint256"
        },
        {
          "indexed": false,
          "internalType": "uint256",
          "name": "amount",
          "type": "uint256"
        }
      ],
      "name": "DonationReceived",
      "type": "event"
    },
    {
      "anonymous": false,
      "inputs": [
        {
          "indexed": false,
          "internalType": "uint256",
          "name": "_tokenId",
          "type": "uint256"
        }
      ],
      "name": "MetadataUpdate",
      "type": "event"
    },
    {
      "anonymous": false,
      "inputs": [
        {
          "indexed": true,
          "internalType": "address",
          "name": "from",
          "type": "address"
        },
        {
          "indexed": true,
          "internalType": "address",
          "name": "to",
          "type": "address"
        },
        {
          "indexed": true,
          "internalType": "uint256",
          "name": "tokenId",
          "type": "uint256"
        }
      ],
      "name": "Transfer",
      "type": "event"
    },
    {
      "inputs": [
        {
          "internalType": "address",
          "name": "to",
          "type": "address"
        },
        {
          "internalType": "uint256",
          "name": "tokenId",
          "type": "uint256"
        }
      ],
      "name": "approve",
      "outputs": [],
      "stateMutability": "nonpayable",
      "type": "function"
    },
    {
      "inputs": [
        {
          "internalType": "address",
          "name": "owner",
          "type": "address"
        }
      ],
      "name": "balanceOf",
      "outputs": [
        {
          "internalType": "uint256",
          "name": "",
          "type": "uint256"
        }
      ],
      "stateMutability": "view",
      "type": "function"
    },
    {
      "inputs": [
        {
          "internalType": "uint256",
          "name": "tokenId",
          "type": "uint256"
        }
      ],
      "name": "donate",
      "outputs": [],
      "stateMutability": "payable",
      "type": "function"
    },
    {
      "inputs": [
        {
          "internalType": "uint256",
          "name": "tokenId",
          "type": "uint256"
        }
      ],
      "name": "getApproved",
      "outputs": [
        {
          "internalType": "address",
          "name": "",
          "type": "address"
        }
      ],
      "stateMutability": "view",
      "type": "function"
    },
    {
      "inputs": [
        {
          "internalType": "address",
          "name": "owner",
          "type": "address"
        },
        {
          "internalType": "address",
          "name": "operator",
          "type": "address"
        }
      ],
      "name": "isApprovedForAll",
      "outputs": [
        {
          "internalType": "bool",
          "name": "",
          "type": "bool"
        }
      ],
      "stateMutability": "view",
      "type": "function"
    },
    {
      "inputs": [
        {
          "internalType": "string",
          "name": "tokenURI",
          "type": "string"
        }
      ],
      "name": "mintNFT",
      "outputs": [
        {
          "internalType": "uint256",
          "name": "newTokenId",
          "type": "uint256"
        }
      ],
      "stateMutability": "nonpayable",
      "type": "function"
    },
    {
      "inputs": [],
      "name": "name",
      "outputs": [
        {
          "internalType": "string",
          "name": "",
          "type": "string"
        }
      ],
      "stateMutability": "view",
      "type": "function"
    },
    {
      "inputs": [
        {
          "internalType": "uint256",
          "name": "tokenId",
          "type": "uint256"
        }
      ],
      "name": "ownerOf",
      "outputs": [
        {
          "internalType": "address",
          "name": "",
          "type": "address"
        }
      ],
      "stateMutability": "view",
      "type": "function"
    },
    {
      "inputs": [
        {
          "internalType": "address",
          "name": "from",
          "type": "address"
        },
        {
          "internalType": "address",
          "name": "to",
          "type": "address"
        },
        {
          "internalType": "uint256",
          "name": "tokenId",
          "type": "uint256"
        }
      ],
      "name": "safeTransferFrom",
      "outputs": [],
      "stateMutability": "nonpayable",
      "type": "function"
    },
    {
      "inputs": [
        {
          "internalType": "address",
          "name": "from",
          "type": "address"
        },
        {
          "internalType": "address",
          "name": "to",
          "type": "address"
        },
        {
          "internalType": "uint256",
          "name": "tokenId",
          "type": "uint256"
        },
        {
          "internalType": "bytes",
          "name": "data",
          "type": "bytes"
        }
      ],
      "name": "safeTransferFrom",
      "outputs": [],
      "stateMutability": "nonpayable",
      "type": "function"
    },
    {
      "inputs": [
        {
          "internalType": "address",
          "name": "operator",
          "type": "address"
        },
        {
          "internalType": "bool",
          "name": "approved",
          "type": "bool"
        }
      ],
      "name": "setApprovalForAll",
      "outputs": [],
      "stateMutability": "nonpayable",
      "type": "function"
    },
    {
      "inputs": [
        {
          "internalType": "bytes4",
          "name": "interfaceId",
          "type": "bytes4"
        }
      ],
      "name": "supportsInterface",
      "outputs": [
        {
          "internalType": "bool",
          "name": "",
          "type": "bool"
        }
      ],
      "stateMutability": "view",
      "type": "function"
    },
    {
      "inputs": [],
      "name": "symbol",
      "outputs": [
        {
          "internalType": "string",
          "name": "",
          "type": "string"
        }
      ],
      "stateMutability": "view",
      "type": "function"
    },
    {
      "inputs": [
        {
          "internalType": "uint256",
          "name": "tokenId",
          "type": "uint256"
        }
      ],
      "name": "tokenURI",
      "outputs": [
        {
          "internalType": "string",
          "name": "",
          "type": "string"
        }
      ],
      "stateMutability": "view",
      "type": "function"
    },
    {
      "inputs": [
        {
          "internalType": "uint256",
          "name": "",
          "type": "uint256"
        }
      ],
      "name": "totalDonations",
      "outputs": [
        {
          "internalType": "uint256",
          "name": "",
          "type": "uint256"
        }
      ],
      "stateMutability": "view",
      "type": "function"
    },
    {
      "inputs": [],
      "name": "totalSupply",
      "outputs": [
        {
          "internalType": "uint256",
          "name": "",
          "type": "uint256"
        }
      ],
      "stateMutability": "view",
      "type": "function"
    },
    {
      "inputs": [
        {
          "internalType": "address",
          "name": "from",
          "type": "address"
        },
        {
          "internalType": "address",
          "name": "to",
          "type": "address"
        },
        {
          "internalType": "uint256",
          "name": "tokenId",
          "type": "uint256"
        }
      ],
      "name": "transferFrom",
      "outputs": [],
      "stateMutability": "nonpayable",
      "type": "function"
    }
  ],
  "bytecode": "0x608060405234801562000010575f80fd5b506040518060400160405280600c81526020016b27232a102237b730ba34b7b760a11b81525060405180604001604052806006815260200165444f4e41544560d01b815250815f908162000065919062000122565b50600162000074828262000122565b5050600160075550620001ea565b634e487b7160e01b5f52604160045260245ffd5b600181811c90821680620000ab57607f821691505b602082108103620000ca57634e487b7160e01b5f52602260045260245ffd5b50919050565b601f8211156200011d575f81815260208120601f850160051c81016020861015620000f85750805b601f850160051c820191505b81811015620001195782815560010162000104565b5050505b505050565b81516001600160401b038111156200013e576200013e62000082565b62000156816200014f845462000096565b84620000d0565b602080601f8311600181146200018c575f8415620001745750858301515b5f19600386901b1c1916600185901b17855562000119565b5f85815260208120601f198616915b82811015620001bc578886015182559484019460019091019084016200019b565b5085821015620001da57878501515f19600388901b60f8161c191681555b5050505050600190811b01905550565b61159f80620001f85f395ff3fe6080604052600436106100fa575f3560e01c806370a0823111610092578063b88d4fde11610062578063b88d4fde146102a3578063c87b56dd146102c2578063e985e9c5146102e1578063f14faf6f14610300578063fb37e88314610313575f80fd5b806370a082311461022657806395d89b41146102455780639f1482e414610259578063a22cb46514610284575f80fd5b806318160ddd116100cd57806318160ddd146101ab57806323b872dd146101c957806342842e0e146101e85780636352211e14610207575f80fd5b806301ffc9a7146100fe57806306fdde0314610132578063081812fc14610153578063095ea7b31461018a575b5f80fd5b348015610109575f80fd5b5061011d61011836600461109e565b610332565b60405190151581526020015b60405180910390f35b34801561013d575f80fd5b5061014661035c565b6040516101299190611106565b34801561015e575f80fd5b5061017261016d366004611118565b6103eb565b6040516001600160a01b039091168152602001610129565b348015610195575f80fd5b506101a96101a4366004611145565b610412565b005b3480156101b6575f80fd5b506008545b604051908152602001610129565b3480156101d4575f80fd5b506101a96101e336600461116d565b610421565b3480156101f3575f80fd5b506101a961020236600461116d565b6104af565b348015610212575f80fd5b50610172610221366004611118565b6104ce565b348015610231575f80fd5b506101bb6102403660046111a6565b6104d8565b348015610250575f80fd5b5061014661051d565b348015610264575f80fd5b506101bb610273366004611118565b60096020525f908152604090205481565b34801561028f575f80fd5b506101a961029e3660046111bf565b61052c565b3480156102ae575f80fd5b506101a96102bd36600461127f565b610537565b3480156102cd575f80fd5b506101466102dc366004611118565b61054f565b3480156102ec575f80fd5b5061011d6102fb3660046112f6565b61065a565b6101a961030e366004611118565b610687565b34801561031e575f80fd5b506101bb61032d366004611327565b61085f565b5f6001600160e01b03198216632483248360e11b1480610356575061035682610892565b92915050565b60605f805461036a9061136c565b80601f01602080910402602001604051908101604052809291908181526020018280546103969061136c565b80156103e15780601f106103b8576101008083540402835291602001916103e1565b820191905f5260205f20905b8154815290600101906020018083116103c457829003601f168201915b5050505050905090565b5f6103f5826108e1565b505f828152600460205260409020546001600160a01b0316610356565b61041d828233610919565b5050565b6001600160a01b03821661044f57604051633250574960e11b81525f60048201526024015b60405180910390fd5b5f61045b838333610926565b9050836001600160a01b0316816001600160a01b0316146104a9576040516364283d7b60e01b81526001600160a01b0380861660048301526024820184905282166044820152606401610446565b50505050565b6104c983838360405180602001604052805f815250610537565b505050565b5f610356826108e1565b5f6001600160a01b038216610502576040516322718ad960e21b81525f6004820152602401610446565b506001600160a01b03165f9081526003602052604090205490565b60606001805461036a9061136c565b61041d338383610a18565b610542848484610421565b6104a93385858585610ab6565b606061055a826108e1565b505f82815260066020526040812080546105739061136c565b80601f016020809104026020016040519081016040528092919081815260200182805461059f9061136c565b80156105ea5780601f106105c1576101008083540402835291602001916105ea565b820191905f5260205f20905b8154815290600101906020018083116105cd57829003601f168201915b505050505090505f61060660408051602081019091525f815290565b905080515f03610617575092915050565b8151156106495780826040516020016106319291906113a4565b60405160208183030381529060405292505050919050565b61065284610bde565b949350505050565b6001600160a01b039182165f90815260056020908152604080832093909416825291909152205460ff1690565b61068f610c4f565b5f818152600260205260409020546001600160a01b03166106f25760405162461bcd60e51b815260206004820152601860248201527f4552433732313a20696e76616c696420746f6b656e20494400000000000000006044820152606401610446565b5f341161074c5760405162461bcd60e51b815260206004820152602260248201527f446f6e6174696f6e206d7573742062652067726561746572207468616e207a65604482015261726f60f01b6064820152608401610446565b5f610756826104ce565b90505f816001600160a01b0316346040515f6040518083038185875af1925050503d805f81146107a1576040519150601f19603f3d011682016040523d82523d5f602084013e6107a6565b606091505b50509050806107f75760405162461bcd60e51b815260206004820152601860248201527f446f6e6174696f6e207472616e73666572206661696c656400000000000000006044820152606401610446565b5f83815260096020526040812080543492906108149084906113e6565b9091555050604051348152839033907f4b0304ab2f313234b1cea012339c8f8c3bf2c8bb357d81a579cfdb35d2e3d0309060200160405180910390a3505061085c6001600755565b50565b600880545f918261086f836113f9565b919050555060085490506108833382610c79565b61088d8183610c92565b919050565b5f6001600160e01b031982166380ac58cd60e01b14806108c257506001600160e01b03198216635b5e139f60e01b145b8061035657506301ffc9a760e01b6001600160e01b0319831614610356565b5f818152600260205260408120546001600160a01b03168061035657604051637e27328960e01b815260048101849052602401610446565b6104c98383836001610ce1565b5f828152600260205260408120546001600160a01b039081169083161561095257610952818486610de5565b6001600160a01b0381161561098c5761096d5f855f80610ce1565b6001600160a01b0381165f90815260036020526040902080545f190190555b6001600160a01b038516156109ba576001600160a01b0385165f908152600360205260409020805460010190555b5f8481526002602052604080822080546001600160a01b0319166001600160a01b0389811691821790925591518793918516917fddf252ad1be2c89b69c2b068fc378daa952ba7f163c4a11628f55a4df523b3ef91a4949350505050565b6001600160a01b038216610a4a57604051630b61174360e31b81526001600160a01b0383166004820152602401610446565b6001600160a01b038381165f81815260056020908152604080832094871680845294825291829020805460ff191686151590811790915591519182527f17307eab39ab6107e8899845ad3d59bd9653f200f220920489ca2b5937696c31910160405180910390a3505050565b6001600160a01b0383163b15610bd757604051630a85bd0160e11b81526001600160a01b0384169063150b7a0290610af8908890889087908790600401611411565b6020604051808303815f875af1925050508015610b32575060408051601f3d908101601f19168201909252610b2f9181019061144d565b60015b610b99573d808015610b5f576040519150601f19603f3d011682016040523d82523d5f602084013e610b64565b606091505b5080515f03610b9157604051633250574960e11b81526001600160a01b0385166004820152602401610446565b805160208201fd5b6001600160e01b03198116630a85bd0160e11b14610bd557604051633250574960e11b81526001600160a01b0385166004820152602401610446565b505b5050505050565b6060610be9826108e1565b505f610bff60408051602081019091525f815290565b90505f815111610c1d5760405180602001604052805f815250610c48565b80610c2784610e49565b604051602001610c389291906113a4565b6040516020818303038152906040525b9392505050565b600260075403610c7257604051633ee5aeb560e01b815260040160405180910390fd5b6002600755565b61041d828260405180602001604052805f815250610ed9565b5f828152600660205260409020610ca982826114ad565b506040518281527ff8e1a15aba9398e019f0b49df1a4fde98ee17ae345cb5f6b5e2c27f5033e8ce79060200160405180910390a15050565b8080610cf557506001600160a01b03821615155b15610db6575f610d04846108e1565b90506001600160a01b03831615801590610d305750826001600160a01b0316816001600160a01b031614155b8015610d435750610d41818461065a565b155b15610d6c5760405163a9fbf51f60e01b81526001600160a01b0384166004820152602401610446565b8115610db45783856001600160a01b0316826001600160a01b03167f8c5be1e5ebec7d5bd14f71427d1e84f3dd0314c0f7b2291e5b200ac8c7c3b92560405160405180910390a45b505b50505f90815260046020526040902080546001600160a01b0319166001600160a01b0392909216919091179055565b610df0838383610ef0565b6104c9576001600160a01b038316610e1e57604051637e27328960e01b815260048101829052602401610446565b60405163177e802f60e01b81526001600160a01b038316600482015260248101829052604401610446565b60605f610e5583610f51565b60010190505f8167ffffffffffffffff811115610e7457610e746111f8565b6040519080825280601f01601f191660200182016040528015610e9e576020820181803683370190505b5090508181016020015b5f19016f181899199a1a9b1b9c1cb0b131b232b360811b600a86061a8153600a8504945084610ea857509392505050565b610ee38383611028565b6104c9335f858585610ab6565b5f6001600160a01b038316158015906106525750826001600160a01b0316846001600160a01b03161480610f295750610f29848461065a565b806106525750505f908152600460205260409020546001600160a01b03908116911614919050565b5f8072184f03e93ff9f4daa797ed6e38ed64bf6a1f0160401b8310610f8f5772184f03e93ff9f4daa797ed6e38ed64bf6a1f0160401b830492506040015b6d04ee2d6d415b85acef81000000008310610fbb576d04ee2d6d415b85acef8100000000830492506020015b662386f26fc100008310610fd957662386f26fc10000830492506010015b6305f5e1008310610ff1576305f5e100830492506008015b612710831061100557612710830492506004015b60648310611017576064830492506002015b600a83106103565760010192915050565b6001600160a01b03821661105157604051633250574960e11b81525f6004820152602401610446565b5f61105d83835f610926565b90506001600160a01b038116156104c9576040516339e3563760e11b81525f6004820152602401610446565b6001600160e01b03198116811461085c575f80fd5b5f602082840312156110ae575f80fd5b8135610c4881611089565b5f5b838110156110d35781810151838201526020016110bb565b50505f910152565b5f81518084526110f28160208601602086016110b9565b601f01601f19169290920160200192915050565b602081525f610c4860208301846110db565b5f60208284031215611128575f80fd5b5035919050565b80356001600160a01b038116811461088d575f80fd5b5f8060408385031215611156575f80fd5b61115f8361112f565b946020939093013593505050565b5f805f6060848603121561117f575f80fd5b6111888461112f565b92506111966020850161112f565b9150604084013590509250925092565b5f602082840312156111b6575f80fd5b610c488261112f565b5f80604083850312156111d0575f80fd5b6111d98361112f565b9150602083013580151581146111ed575f80fd5b809150509250929050565b634e487b7160e01b5f52604160045260245ffd5b5f67ffffffffffffffff80841115611226576112266111f8565b604051601f8501601f19908116603f0116810190828211818310171561124e5761124e6111f8565b81604052809350858152868686011115611266575f80fd5b858560208301375f602087830101525050509392505050565b5f805f8060808587031215611292575f80fd5b61129b8561112f565b93506112a96020860161112f565b925060408501359150606085013567ffffffffffffffff8111156112cb575f80fd5b8501601f810187136112db575f80fd5b6112ea8782356020840161120c565b91505092959194509250565b5f8060408385031215611307575f80fd5b6113108361112f565b915061131e6020840161112f565b90509250929050565b5f60208284031215611337575f80fd5b813567ffffffffffffffff81111561134d575f80fd5b8201601f8101841361135d575f80fd5b6106528482356020840161120c565b600181811c9082168061138057607f821691505b60208210810361139e57634e487b7160e01b5f52602260045260245ffd5b50919050565b5f83516113b58184602088016110b9565b8351908301906113c98183602088016110b9565b01949350505050565b634e487b7160e01b5f52601160045260245ffd5b80820180821115610356576103566113d2565b5f6001820161140a5761140a6113d2565b5060010190565b6001600160a01b03858116825284166020820152604081018390526080606082018190525f90611443908301846110db565b9695505050505050565b5f6020828403121561145d575f80fd5b8151610c4881611089565b601f8211156104c9575f81815260208120601f850160051c8101602086101561148e5750805b601f850160051c820191505b81811015610bd55782815560010161149a565b815167ffffffffffffffff8111156114c7576114c76111f8565b6114db816114d5845461136c565b84611468565b602080601f83116001811461150e575f84156114f75750858301515b5f19600386901b1c1916600185901b178555610bd5565b5f85815260208120601f198616915b8281101561153c5788860151825594840194600190910190840161151d565b508582101561155957878501515f19600388901b60f8161c191681555b5050505050600190811b0190555056fea2646970667358221220bee45c48b15bd141a47cab440f8846d473769d827ccf49b9dd97f37b9e54373064736f6c63430008140033",
  "linkReferences": {},
  "deployedLinkReferences": {},
  "immutableReferences": {},
  "inputSourceName": "project/contracts/NFTDonation.sol",
  "buildInfoId": "solc-0_8_20-31b15dbd8b429150a5764090d25814635f422922"
}